:100000000C945D000C9485000C9485000C94850084
:100010000C9485000C9485000C9485000C9485004C
:100020000C9485000C9485000C9485000C9485003C
:100030000C9485000C9485000C9485000C9485002C
:100040000C94C9030C9485000C9497030C947103D1
:100050000C9485000C9485000C9485000C9485000C
:100060000C9485000C9485000000000024002700FB
:100070002A0000000000250028002B0004040404CE
:100080000404040402020202020203030303030342
:10009000010204081020408001020408102001021F
:1000A00004081020000000080002010000030407FB
:1000B00000000000000000009A0511241FBECFEFD1
:1000C000D8E0DEBFCDBF11E0A0E0B1E0E2EDF0E1AD
:1000D00002C005900D92AC34B107D9F721E0ACE431
:1000E000B1E001C01D92AA3FB207E1F710E0CDE5F3
:1000F000D0E004C02197FE010E946108CC35D107F1
:10010000C9F70E9413040C9467080C940000EDEAF0
:10011000F0E02491E9E9F0E09491E5E8F0E0E49181
:10012000EE23C9F0222339F0233001F1A8F4213065
:1001300019F1223029F1F0E0EE0FFF1FEE58FF4FCA
:10014000A591B4912FB7F894EC91811126C09095A8
:100150009E239C932FBF08952730A9F02830C9F023
:10016000243049F7209180002F7D03C0209180002A
:100170002F7720938000DFCF24B52F7724BDDBCFEE
:1001800024B52F7DFBCF2091B0002F772093B000B6
:10019000D2CF2091B0002F7DF9CF9E2BDACFAF9236
:1001A000BF92CF92DF92EF92FF920F931F93CF9364
:1001B000DF936C017B018B01040F151FEB015E01C6
:1001C000AE18BF08C017D10759F06991D601ED915B
:1001D000FC910190F081E02DC6010995892B79F7FA
:1001E000C501DF91CF911F910F91FF90EF90DF90AC
:1001F000CF90BF90AF900895FC01538D448D252F73
:1002000030E0842F90E0821B930B541710F0CF96B0
:10021000089501970895FC01918D828D981761F0E2
:10022000A28DAE0FBF2FB11D5D968C91928D9F5FF9
:100230009F73928F90E008958FEF9FEF0895FC01D8
:10024000918D828D981731F0828DE80FF11D858D8B
:1002500090E008958FEF9FEF0895FC01918D228D1E
:10026000892F90E0805C9F4F821B91098F739927A3
:1002700008958DE591E00E942D0121E0892B09F47C
:1002800020E0822F089580E090E0892B29F00E94E1
:10029000390181110C9400000895FC01A48DA80F70
:1002A000B92FB11DA35ABF4F2C91848D90E00196B8
:1002B0008F739927848FA689B7892C93A089B189D8
:1002C0008C91837080648C93938D848D981306C079
:1002D0000288F389E02D80818F7D80830895EF92DD
:1002E000FF920F931F93CF93DF93EC0181E0888FF0
:1002F0009B8D8C8D98131AC0E889F989808185FFC0
:1003000015C09FB7F894EE89FF896083E889F98961
:1003100080818370806480839FBF81E090E0DF9163
:10032000CF911F910F91FF90EF900895F62E0B8DB6
:1003300010E00F5F1F4F0F731127E02E8C8D8E1171
:100340000CC00FB607FCFACFE889F989808185FFD8
:10035000F5CFCE010E944D01F1CFEB8DEC0FFD2FBB
:10036000F11DE35AFF4FF0829FB7F8940B8FEA8993
:10037000FB8980818062CFCFCF93DF93EC01888DA2
:100380008823B9F0AA89BB89E889F9898C9185FD10
:1003900003C0808186FD0DC00FB607FCF7CF8C919E
:1003A00085FFF2CF808185FFEDCFCE010E944D0108
:1003B000E9CFDF91CF910895CF93DF9390E0FC01D7
:1003C000E057FF4F249184589F4FFC01849188236C
:1003D000D1F090E0880F991FFC01E859FF4FA591DB
:1003E000B491FC01EE58FF4FC591D49161110EC03C
:1003F0009FB7F8948C91E22FE0958E238C932881FF
:10040000E223E8839FBFDF91CF9108958FB7F894DF
:10041000EC91E22BEC938FBFF6CF8E5080648093EB
:100420007C0080917A00806480937A0080917A00C9
:1004300086FDFCCF809178009091790008953FB7B8
:10044000F8948091510190915201A0915301B09183
:10045000540126B5A89B05C02F3F19F00196A11D98
:10046000B11D3FBFBA2FA92F982F8827BC01CD01FE
:10047000620F711D811D911D42E0660F771F881F5D
:10048000991F4A95D1F70895FC0101900020E9F7E2
:100490003197AF01481B590BBC018DE591E00C94DD
:1004A000CF008F929F92AF92BF920F931F93CF93E3
:1004B000DF93CDB7DEB7A1970FB6F894DEBF0FBEBE
:1004C000CDBF19A2423008F44AE08E010F5D1F4FE4
:1004D000842E912CB12CA12CA50194010E94E6053B
:1004E000E62FB901CA01EA30F4F4E05DD801EE93D9
:1004F0008D01232B242B252B79F790E080E010979A
:1005000019F0CD010E944402A1960FB6F894DEBF07
:100510000FBECDBFDF91CF911F910F91BF90AF90D4
:100520009F908F900895E95CE1CF4F925F926F9218
:100530007F928F929F92AF92BF92CF92DF92EF9273
:10054000FF920F931F93CF936B017C01742EAC012C
:100550009B010E945508882399F084E191E0CF9196
:100560001F910F91FF90EF90DF90CF90BF90AF90D1
:100570009F908F907F906F905F904F900C9444026B
:1005800046015701E894B7F82FEF3FEF4FE75FE7D9
:10059000C501B4010E94550881110DC02FEF3FEF36
:1005A0004FE75FE7C501B4010E94840618161CF4EA
:1005B00088E191E0D4CF2FEF3FEF4FE75FE4C70131
:1005C000B6010E94E30718161CF48CE191E0C7CF36
:1005D0002FEF3FEF4FE75FECC701B6010E948406A3
:1005E00087FDF3CF20E030E0A901C701B6010E94EA
:1005F000840610E000E087FF0AC06DE28DE591E01F
:100600000E946F018C01F7FAF094F7F8F094C0E0C3
:1006100060E070E080E09FE37C1641F020E030E095
:1006200040E251E40E948906CF5FF6CFA701960110
:100630000E9418062B013C010E9402074B015C013D
:100640004AE00E9451027C01E00EF11ECC23C1F170
:10065000C501B4010E9431079B01AC01C301B20185
:100660000E9417064B015C016EE28DE591E00E944D
:100670006F01E80EF91EC15018F120E030E040E2B1
:1006800051E4C501B4010E94E8072B013C010E941E
:1006900002074B01B12CA12C4AE0C501B4010E9414
:1006A0005102E80EF91EC501B4010E9431079B01F9
:1006B000AC01C301B2010E9417064B015C01DBCF04
:1006C000C701CF911F910F91FF90EF90DF90CF90D6
:1006D000BF90AF909F908F907F906F905F904F9062
:1006E00008951F920F920FB60F9211242F933F93EC
:1006F0004F935F936F937F938F939F93AF93BF932A
:10070000EF93FF938DE591E00E944D01FF91EF91F2
:10071000BF91AF919F918F917F916F915F914F9119
:100720003F912F910F900FBE0F901F9018951F9221
:100730000F920FB60F9211242F938F939F93EF93E5
:10074000FF93E0916D01F0916E018081E091730162
:10075000F091740182FD1BC09081809176018F5FC2
:100760008F7320917701821741F0E0917601F0E0DC
:10077000E35AFE4F958F80937601FF91EF919F9101
:100780008F912F910F900FBE0F901F901895808121
:10079000F4CF1F920F920FB60F9211242F933F9315
:1007A0008F939F93AF93BF9380914D0190914E0192
:1007B000A0914F01B091500130914C0123E0230FE3
:1007C0002D3758F50196A11DB11D20934C01809342
:1007D0004D0190934E01A0934F01B0935001809131
:1007E000510190915201A0915301B0915401019691
:1007F000A11DB11D8093510190935201A09353010B
:10080000B0935401BF91AF919F918F913F912F91E0
:100810000F900FBE0F901F90189526E8230F029699
:10082000A11DB11DD2CF789484B5826084BD84B5FA
:10083000816084BD85B5826085BD85B5816085BDDB
:1008400080916E00816080936E0010928100809193
:10085000810082608093810080918100816080931B
:100860008100809180008160809380008091B10040
:1008700084608093B1008091B00081608093B0006B
:1008800080917A00846080937A0080917A008260FF
:1008900080937A0080917A00816080937A008091C1
:1008A0007A00806880937A001092C100E0916D0117
:1008B000F0916E0182E08083E0916901F0916A011C
:1008C0001082E0916B01F0916C018FEC80831092AB
:1008D0007501E0917101F091720186E08083E091F1
:1008E0006F01F0917001808180618083E0916F01E0
:1008F000F0917001808188608083E0916F01F091B8
:100900007001808180688083E0916F01F0917001B7
:1009100080818F7D808361E089E00E94DC0160E05E
:100920008FE00E94DC0144244A9493E0592E612C0C
:10093000712C0DEA10E0C0E0D0E08FE00E940D02C3
:100940002BE430E0DC010E945A08A30192010E94CE
:10095000C705CA01B9010E9433076093590170931A
:100960005A0180935B0190935C0180E10E940D022B
:100970002CE330E0DC010E945A08A30192010E949E
:10098000C705CA01B9010E943307609355017093EE
:100990005601809357019093580180E291E00E94A4
:1009A00044026091550170915601809157019091D8
:1009B000580142E00E94950284E391E00E944402C3
:1009C00084E391E00E94440287E391E00E944402A4
:1009D0006091590170915A0180915B0190915C0185
:1009E00042E00E94950284E391E00E94440284E385
:1009F00091E00E9444022091590130915A014091A6
:100A00005B0150915C01609155017091560180919C
:100A10005701909158010E9417060E94FB06E09032
:100A20000001F0900101E60EF71EF0920101E09244
:100A3000000161E089E00E94DC01E114F10491F51C
:100A400080E00E9487000E941F024B015C0185E04C
:100A5000C82ED12CE12CF12C0E941F0268197909B3
:100A60008A099B09683E734081059105A8F321E03E
:100A7000C21AD108E108F10888EE880E83E0981EBA
:100A8000A11CB11CC114D104E104F10429F7209781
:100A900009F453CF0E943901882309F44ECF0E94F4
:100AA00000004BCF2FEFE216F10411F481E0C9CF23
:100AB000F8018491833021F148F48130B9F082301B
:100AC000D1F0F0E8EF16F1048CF7BACF873011F1CE
:100AD000883041F18430A9F7809180008062809352
:100AE0008000F0928B00E0928A00ADCF84B58068E0
:100AF00084BDE7BCA8CF84B5806284BDE8BCA3CF29
:100B000080918000806880938000F0928900E0925C
:100B1000880099CF8091B00080688093B000E09207
:100B2000B30091CF8091B00080628093B000E092DA
:100B3000B40089CFEDE5F1E01382128288EE93E0F4
:100B4000A0E0B0E084839583A683B78386E091E03C
:100B50009183808385EC90E09587848784EC90E096
:100B60009787868780EC90E0918B808B81EC90E07A
:100B7000938B828B82EC90E0958B848B86EC90E05B
:100B8000978B868B118E128E138E148E0895052EE0
:100B900097FB1EF400940E94DE0557FD07D00E94CB
:100BA000E60507FC03D04EF40C94DE055095409505
:100BB000309521953F4F4F4F5F4F08959095809509
:100BC000709561957F4F8F4F9F4F0895A1E21A2E28
:100BD000AA1BBB1BFD010DC0AA1FBB1FEE1FFF1FE1
:100BE000A217B307E407F50720F0A21BB30BE40B31
:100BF000F50B661F771F881F991F1A9469F7609578
:100C00007095809590959B01AC01BD01CF01089531
:100C1000A29FB001B39FC001A39F700D811D11243D
:100C2000911DB29F700D811D1124911D0895505882
:100C3000BB27AA270E942F060C94A9070E949B0796
:100C400038F00E94A20720F039F49F3F19F426F4EF
:100C50000C9498070EF4E095E7FB0C949207E92FAB
:100C60000E94BA0758F3BA176207730784079507FB
:100C700020F079F4A6F50C94DC070EF4E0950B2E29
:100C8000BA2FA02D0B01B90190010C01CA01A001DE
:100C90001124FF27591B99F0593F50F4503E68F139
:100CA0001A16F040A22F232F342F4427585FF3CF7A
:100CB000469537952795A795F0405395C9F77EF44B
:100CC0001F16BA0B620B730B840BBAF09150A1F094
:100CD000FF0FBB1F661F771F881FC2F70EC0BA0F1A
:100CE000621F731F841F48F4879577956795B795A2
:100CF000F7959E3F08F0B0CF9395880F08F099279D
:100D0000EE0F9795879508950E946E0708F481E08D
:100D100008950E949D060C94A9070E94A20758F00E
:100D20000E949B0740F029F45F3F29F00C94920742
:100D300051110C94DD070C9498070E94BA0768F3D0
:100D40009923B1F3552391F3951B550BBB27AA2784
:100D500062177307840738F09F5F5F4F220F331FBE
:100D6000441FAA1FA9F335D00E2E3AF0E0E832D086
:100D700091505040E695001CCAF72BD0FE2F29D089
:100D8000660F771F881FBB1F261737074807AB075B
:100D9000B0E809F0BB0B802DBF01FF2793585F4FD0
:100DA0003AF09E3F510578F00C9492070C94DD07C1
:100DB0005F3FE4F3983ED4F3869577956795B795B2
:100DC000F7959F5FC9F7880F911D9695879597F9BD
:100DD0000895E1E0660F771F881FBB1F6217730736
:100DE0008407BA0720F0621B730B840BBA0BEE1F4B
:100DF00088F7E09508950E9402076894B1110C9459
:100E0000DD0708950E94C20788F09F5798F0B92F18
:100E10009927B751B0F0E1F0660F771F881F991F2F
:100E20001AF0BA95C9F714C0B13091F00E94DC07EE
:100E3000B1E008950C94DC07672F782F8827B85FFE
:100E400039F0B93FCCF3869577956795B395D9F787
:100E50003EF490958095709561957F4F8F4F9F4F91
:100E60000895E89409C097FB3EF49095809570959D
:100E700061957F4F8F4F9F4F9923A9F0F92F96E9E6
:100E8000BB279395F695879577956795B795F1115B
:100E9000F8CFFAF4BB0F11F460FF1BC06F5F7F4FF8
:100EA0008F4F9F4F16C0882311F096E911C077230A
:100EB00021F09EE8872F762F05C0662371F096E813
:100EC000862F70E060E02AF09A95660F771F881FE2
:100ED000DAF7880F9695879597F90895990F000886
:100EE000550FAA0BE0E8FEEF16161706E807F907FC
:100EF000C0F012161306E407F50798F0621B730B97
:100F0000840B950B39F40A2661F0232B242B252B17
:100F100021F408950A2609F4A140A6958FEF811DBA
:100F2000811D089597F99F6780E870E060E008955B
:100F30009FEF80EC089500240A94161617061806F1
:100F40000906089500240A941216130614060506CD
:100F50000895092E0394000C11F4882352F0BB0F5E
:100F600040F4BF2B11F460FF04C06F5F7F4F8F4FC1
:100F70009F4F089557FD9058440F551F59F05F3FFC
:100F800071F04795880F97FB991F61F09F3F79F0AB
:100F900087950895121613061406551FF2CF46952D
:100FA000F1DF08C0161617061806991FF1CF8695AF
:100FB0007105610508940895E894BB276627772793
:100FC000CB0197F908950E946E0708F48FEF0895FA
:100FD0000E94FB070C94A9070E949B0738F00E940F
:100FE000A20720F0952311F00C9492070C94980717
:100FF00011240C94DD070E94BA0770F3959FC1F38A
:10100000950F50E0551F629FF001729FBB27F00DB6
:10101000B11D639FAA27F00DB11DAA1F649F66270B
:10102000B00DA11D661F829F2227B00DA11D621F5A
:10103000739FB00DA11D621F839FA00D611D221F14
:10104000749F3327A00D611D231F849F600D211DF8
:10105000822F762F6A2F11249F5750409AF0F1F07B
:1010600088234AF0EE0FFF1FBB1F661F771F881FE4
:1010700091505040A9F79E3F510580F00C94920783
:101080000C94DD075F3FE4F3983ED4F386957795A3
:101090006795B795F795E7959F5FC1F7FE2B880F8A
:1010A000911D9695879597F908950E946E07880B74
:1010B000990B08950E940806B7FF0895821B930BB1
:1010C0000895EE0FFF1F0590F491E02D0994F89418
:0210D000FFCF50
:1010D2001400000000006F01CF00FC00BC012D01D4
:1010E2000B011F016E616E00696E66006F7666000D
:1010F200526571756972656420566F6C74616765BB
:10110200203A20000D0A004F757470757420566FD6
:0C1112006C746167652020203A2000000A
:00000001FF
